:020000040800F2
:10000000C8060020BD010008C5010008C70100089E
:10001000C9010008CB010008CD0100080000000064
:10002000000000000000000000000000CF010008F8
:10003000D101000800000000D3010008D50100082C
:10004000D7010008D7010008D7010008D701000830
:10005000D7010008D7010008D7010008D701000820
:10006000D7010008D7010008D7010008D701000810
:10007000D7010008D7010008D7010008D701000800
:10008000D7010008D701000827060008000000007B
:10009000000000000000000000000000D701000880
:1000A000D7010008D7010008D7010008D7010008D0
:1000B000D7010008D7010008D7010008D7010008C0
:1000C000D7010008D7010008D7010008D7010008B0
:1000D000D7010008D7010008D7010008D7010008A0
:1000E000D7010008D7010008D70100080000000070
:1000F0000000000000000000000000000000000000
:1001000000000000000000000000000000000000EF
:100110000000000000000000D7010008D70100081F
:1001200000F002F800F03AF80AA090E8000C8244CF
:100130008344AAF10107DA4501D100F02FF8AFF2AC
:10014000090EBAE80F0013F0010F18BFFB1A43F0B5
:1001500001031847F405000014060000103A24BFFC
:1001600078C878C1FAD8520724BF30C830C144BF1C
:1001700004680C607047000000230024002500265E
:10018000103A28BF78C1FBD8520728BF30C148BFFA
:100190000B6070471FB51FBD10B510BD00F09DFA74
:1001A0001146FFF7F7FF00F0BFF900F0BBFA03B408
:1001B000FFF7F2FF03BC00F0BFFA000009488047D8
:1001C00009480047FEE7FEE7FEE7FEE7FEE7FEE739
:1001D000FEE7FEE7FEE7FEE704480549054A064B51
:1001E00070470000B502000821010008C800002087
:1001F000C8060020C8020020C80200200CB500205C
:10020000019000906248006840F4803060490860C6
:1002100000BF5F48006800F4003000900198401C67
:100220000190009818B90198B0F5A06FF1D1584825
:10023000006810F4003F02D00120009001E000208F
:1002400000900098012830D15148406850494860DA
:10025000084640684860084640684860084640686C
:1002600020F47C1048600846406840F498104860CC
:100270000846006840F08070086000BF444800688D
:1002800010F0007FFAD04248406820F00300404957
:1002900048600846406840F00200486000BF3C48A3
:1002A000406800F00C000828F9D10CBD10B5FFF72C
:1002B000A5FF10BD10B53648006840F00100344974
:1002C000086008464068334908403149486008469C
:1002D0000068314908402E4908600846006820F44B
:1002E000802008600846406820F4FE0048604FF413
:1002F0001F0088600020C862FFF7D8FF4FF0006041
:100300002649086010BD30B50021002000220023DE
:100310001F4C646804F00C0121B1042906D008299F
:1003200025D107E01E4C1F4D2C6024E01C4C1D4DB8
:100330002C6020E0164C646804F47010144C64685F
:1003400004F48032022404EB904022B9164C44435A
:10035000144D2C600AE00E4CE46A04F00F04631C98
:100360000F4CB4FBF3F444430E4D2C6003E00C4CF3
:100370000C4D2C6000BF00BF054C6468C4F303142F
:100380000A4D295D074C2468CC40064D2C6030BDD9
:10039000001002400000FFF8FFFFF6FE08ED00E04D
:1003A00000127A000000002000093D000400002037
:1003B0000CB5002101910DE00021009102E00099AF
:1003C000491C009141F2707200999142F7D3019952
:1003D000491C019101998142EED30CBD00BF9A499D
:1003E000098811F0800FFAD09749091D08807047DD
:1003F00000B5024603E01078FFF7F0FF521C1078BA
:100400000028F8D100BD00B5024603E012F8010B48
:10041000FFF7E4FF10780028F8D100BD10B58B4835
:10042000FFF7F1FF8A480078FFF7D8FF8948007886
:10043000FFF7D4FF4FF4FA70FFF7BAFF8648FFF7D3
:10044000E2FF83480078FFF7C9FF82480078FFF792
:10045000C5FF40F6B830FFF7ABFF8048FFF7D3FF8A
:100460007B480078FFF7BAFF7A480078FFF7B6FFBD
:1004700040F6B830FFF79CFF7948FFF7C4FF744897
:100480000078FFF7ABFF73480078FFF7A7FF4FF442
:10049000FA60FFF78DFF7348FFF7B5FF6C480078EF
:1004A000FFF79CFF6B480078FFF798FF4FF4FA6066
:1004B000FFF77EFF6CA0FFF79BFF002404E0744968
:1004C000085DFFF78BFF641C042CF8DB71A0FFF7BD
:1004D0008FFF5F480078FFF781FF5E480078FFF7E5
:1004E0007DFF71A0FFF784FF59480078FFF776FF82
:1004F00058480078FFF772FF55480078FFF76EFF05
:1005000054480078FFF76AFF51480078FFF766FF0C
:1005100050480078FFF762FF4FF4007067490861A8
:100520000A20FFF745FF10BD00B56548806940F41B
:100530000570634988610846C06940F00210C861CF
:100540004FF022305D49486003205E49086000207A
:100550005C49243108605B492C3108600720594907
:100560000831086020205749091F08601220012126
:10057000814042094FF0E02303EB8202C2F80011F0
:1005800000BF5048006840F001004E4908604E48E6
:10059000006820F4704040F400404B490860084671
:1005A000006820F4706040F42060086042F20800A7
:1005B00025490C310880454800684FF41651B0FBBE
:1005C000F1F021490831088048153C494861FFF79E
:1005D00025FF002000BDF0B5014608460A26B0FB05
:1005E000F6F706FB1702B0FBF6F0B0FBF6F706FBDA
:1005F0001703B0FBF6F0B0FBF6F706FB1704B0FBF1
:10060000F6F0B0FBF6F706FB170542F0300243F0B8
:10061000300344F0300445F030051D4E35707470E1
:10062000B370F270F0BD00B526480838006810F0CD
:10063000020F08D023484430006825490860084666
:100640000068FFF7C8FF00BD004400401400002010
:100650005E0000205F000020170000201E00002028
:100660002A00002050000020474554202F64617369
:1006700068626F6172642F696F742F6170692F6493
:100680006174612E7068703F646174613D000000A8
:10069000640000202676616C3D61646320485454F8
:1006A000502F312E31000000484F53543A31393227
:1006B0002E3136382E34332E3139370000100140B8
:1006C0000010024008240140000801400000002002
:1006D00060000020704770477047754600F028F8AA
:1006E000AE4605006946534620F00700854618B01F
:1006F00020B5FFF771FDBDE820404FF000064FF038
:1007000000074FF000084FF0000B21F00701AC4646
:10071000ACE8C009ACE8C009ACE8C009ACE8C00965
:100720008D4670470446AFF300802046FFF73FFD3B
:10073000004870476800002001491820ABBEFEE762
:100740002600020070470000680700080000002033
:10075000680000005C010008D00700086800002065
:10076000600600007801000800366E0100000000FD
:10077000000000000102030406070809415400417B
:10078000542B5253540041542B43574D4F44453D35
:10079000330041542B43495053544152543D225449
:1007A0004350222C223139322E3136382E34332E1A
:1007B000313737222C38300041542B4349505345B0
:1007C0004E443D3835000D0A0000000000000000D6
:04000005080001BD31
:00000001FF
